{
    "contractName": "MyContract",
    "abi": [
        {
            "anonymous": false,
            "inputs": [
                {
                    "indexed": false,
                    "internalType": "uint256",
                    "name": "data",
                    "type": "uint256"
                }
            ],
            "name": "DataChanged",
            "type": "event"
        },
        {
            "inputs": [
                {
                    "internalType": "uint256",
                    "name": "_data",
                    "type": "uint256"
                }
            ],
            "name": "setData",
            "outputs": [],
            "stateMutability": "nonpayable",
            "type": "function"
        }
    ],
    "bytecode": "6080604052348015600f57600080fd5b5060bf8061001e6000396000f3fe6080604052348015600f57600080fd5b506004361060285760003560e01c80635b4b73a914602d575b600080fd5b604760048036036020811015604157600080fd5b50356049565b005b6001810160008190556040805182815290517f30abf1e3f71dc652b1df75682ae16af5c006ad42cd23d00001e8e106d8af4e1d9181900360200190a1505056fea2646970667358221220e6660eb0e5b4314594d2f98c136a0245d139b8ea04f15f773962e83dca0a196964736f6c63430007040033",
    "sourcePath": "c:/Users/sherm/coding_workspace/solidity/contracts/myContract.sol",
    "compiler": {
        "name": "solc",
        "version": "0.7.4+commit.3f05b770"
    },
    "functionHashes": {
        "setData(uint256)": "5b4b73a9"
    },
    "gasEstimates": {
        "creation": {
            "codeDepositCost": "38200",
            "executionCost": "87",
            "totalCost": "38287"
        },
        "external": {
            "setData(uint256)": "21246"
        }
    }
}