{
    "contractName": "sendMoney",
    "abi": [
        {
            "inputs": [],
            "name": "balanceReceived",
            "outputs": [
                {
                    "internalType": "uint256",
                    "name": "",
                    "type": "uint256"
                }
            ],
            "stateMutability": "view",
            "type": "function"
        },
        {
            "inputs": [],
            "name": "getBalance",
            "outputs": [
                {
                    "internalType": "uint256",
                    "name": "",
                    "type": "uint256"
                }
            ],
            "stateMutability": "view",
            "type": "function"
        },
        {
            "inputs": [],
            "name": "receiveMoney",
            "outputs": [],
            "stateMutability": "payable",
            "type": "function"
        }
    ],
    "bytecode": "608060405234801561001057600080fd5b5060bd8061001f6000396000f3fe60806040526004361060305760003560e01c806312065fe014603557806352a90c421460595780636d26ec1814606b575b600080fd5b348015604057600080fd5b5060476073565b60408051918252519081900360200190f35b348015606457600080fd5b5060476077565b6071607d565b005b4790565b60005481565b600080543401905556fea2646970667358221220fb21f612ff1602455ab382ea1b878e6bac71caa05dcbda7bb9a24aacebace09264736f6c63430007040033",
    "sourcePath": "c:/Users/sherm/coding_workspace/solidity/contracts/sendMoney.sol",
    "compiler": {
        "name": "solc",
        "version": "0.7.4+commit.3f05b770"
    },
    "functionHashes": {
        "balanceReceived()": "52a90c42",
        "getBalance()": "12065fe0",
        "receiveMoney()": "6d26ec18"
    },
    "gasEstimates": {
        "creation": {
            "codeDepositCost": "37800",
            "executionCost": "87",
            "totalCost": "37887"
        },
        "external": {
            "balanceReceived()": "998",
            "getBalance()": "178",
            "receiveMoney()": "20956"
        }
    }
}