{
    "contractName": "WorkingVariables",
    "abi": [
        {
            "inputs": [],
            "name": "decrementUint",
            "outputs": [],
            "stateMutability": "nonpayable",
            "type": "function"
        },
        {
            "inputs": [],
            "name": "getBalanceOfAddress",
            "outputs": [
                {
                    "internalType": "uint256",
                    "name": "",
                    "type": "uint256"
                }
            ],
            "stateMutability": "view",
            "type": "function"
        },
        {
            "inputs": [],
            "name": "incrementUint",
            "outputs": [],
            "stateMutability": "nonpayable",
            "type": "function"
        },
        {
            "inputs": [],
            "name": "myAddress",
            "outputs": [
                {
                    "internalType": "address",
                    "name": "",
                    "type": "address"
                }
            ],
            "stateMutability": "view",
            "type": "function"
        },
        {
            "inputs": [],
            "name": "myBool",
            "outputs": [
                {
                    "internalType": "bool",
                    "name": "",
                    "type": "bool"
                }
            ],
            "stateMutability": "view",
            "type": "function"
        },
        {
            "inputs": [],
            "name": "myString",
            "outputs": [
                {
                    "internalType": "string",
                    "name": "",
                    "type": "string"
                }
            ],
            "stateMutability": "view",
            "type": "function"
        },
        {
            "inputs": [],
            "name": "myUint",
            "outputs": [
                {
                    "internalType": "uint256",
                    "name": "",
                    "type": "uint256"
                }
            ],
            "stateMutability": "view",
            "type": "function"
        },
        {
            "inputs": [],
            "name": "myUint8",
            "outputs": [
                {
                    "internalType": "uint8",
                    "name": "",
                    "type": "uint8"
                }
            ],
            "stateMutability": "view",
            "type": "function"
        },
        {
            "inputs": [
                {
                    "internalType": "address",
                    "name": "_myAddress",
                    "type": "address"
                }
            ],
            "name": "setAddress",
            "outputs": [],
            "stateMutability": "nonpayable",
            "type": "function"
        },
        {
            "inputs": [
                {
                    "internalType": "bool",
                    "name": "_myBool",
                    "type": "bool"
                }
            ],
            "name": "setMyBool",
            "outputs": [],
            "stateMutability": "nonpayable",
            "type": "function"
        },
        {
            "inputs": [
                {
                    "internalType": "string",
                    "name": "_myString",
                    "type": "string"
                }
            ],
            "name": "setMyString",
            "outputs": [],
            "stateMutability": "nonpayable",
            "type": "function"
        },
        {
            "inputs": [
                {
                    "internalType": "uint256",
                    "name": "_myUint",
                    "type": "uint256"
                }
            ],
            "name": "setMyUint",
            "outputs": [],
            "stateMutability": "nonpayable",
            "type": "function"
        }
    ],
    "bytecode": "60c0604052600b60808190526a1a195b1b1bc81ddbdc9b1960aa1b60a090815261002c916002919061003f565b5034801561003957600080fd5b506100e0565b828054600181600116156101000203166002900490600052602060002090601f01602090048101928261007557600085556100bb565b82601f1061008e57805160ff19168380011785556100bb565b828001600101855582156100bb579182015b828111156100bb5782518255916020019190600101906100a0565b506100c79291506100cb565b5090565b5b808211156100c757600081556001016100cc565b610522806100ef6000396000f3fe608060405234801561001057600080fd5b50600436106100b45760003560e01c8063821805681161007157806382180568146101a2578063da50eaee14610248578063e2a4b2af14610250578063e30081a01461026e578063e492fd8414610294578063eb1b30d9146102b1576100b4565b806306540f7e146100b957806314bf43bd146100d357806315502612146100dd57806326b85ee1146100e5578063492bfa18146101095780636deecdbe14610186575b600080fd5b6100c16102d0565b60408051918252519081900360200190f35b6100db6102d6565b005b6100c16102f6565b6100ed610318565b604080516001600160a01b039092168252519081900360200190f35b61011161032d565b6040805160208082528351818301528351919283929083019185019080838360005b8381101561014b578181015183820152602001610133565b50505050905090810190601f1680156101785780820380516001836020036101000a031916815260200191505b509250505060405180910390f35b61018e6103b8565b604080519115158252519081900360200190f35b6100db600480360360208110156101b857600080fd5b8101906020810181356401000000008111156101d357600080fd5b8201836020820111156101e557600080fd5b8035906020019184600183028401116401000000008311171561020757600080fd5b91908080601f0160208091040260200160405190810160405280939291908181526020018383808284376000920191909152509295506103c1945050505050565b6100db6103d8565b6102586103fb565b6040805160ff9092168252519081900360200190f35b6100db6004803603602081101561028457600080fd5b50356001600160a01b0316610409565b6100db600480360360208110156102aa57600080fd5b5035610433565b6100db600480360360208110156102c757600080fd5b50351515610438565b60005481565b6001805460ff610100808304821684019091160261ff0019909116179055565b600154600090600a906201000090046001600160a01b03163104601218905090565b6001546201000090046001600160a01b031681565b6002805460408051602060018416156101000260001901909316849004601f810184900484028201840190925281815292918301828280156103b05780601f10610385576101008083540402835291602001916103b0565b820191906000526020600020905b81548152906001019060200180831161039357829003601f168201915b505050505081565b60015460ff1681565b80516103d490600290602084019061044b565b5050565b6001805460001960ff610100808404821692909201160261ff0019909116179055565b600154610100900460ff1681565b600180546001600160a01b03909216620100000262010000600160b01b0319909216919091179055565b600055565b6001805460ff1916911515919091179055565b828054600181600116156101000203166002900490600052602060002090601f01602090048101928261048157600085556104c7565b82601f1061049a57805160ff19168380011785556104c7565b828001600101855582156104c7579182015b828111156104c75782518255916020019190600101906104ac565b506104d39291506104d7565b5090565b5b808211156104d357600081556001016104d856fea2646970667358221220dc07d2e00c8ddf78cef55a3f9272787d88c061c029a73b148ff268a6ca4cc6b664736f6c63430007040033",
    "sourcePath": "c:/Users/sherm/coding_workspace/solidity/contracts/solidityVars.sol",
    "compiler": {
        "name": "solc",
        "version": "0.7.4+commit.3f05b770"
    },
    "functionHashes": {
        "decrementUint()": "da50eaee",
        "getBalanceOfAddress()": "15502612",
        "incrementUint()": "14bf43bd",
        "myAddress()": "26b85ee1",
        "myBool()": "6deecdbe",
        "myString()": "492bfa18",
        "myUint()": "06540f7e",
        "myUint8()": "e2a4b2af",
        "setAddress(address)": "e30081a0",
        "setMyBool(bool)": "eb1b30d9",
        "setMyString(string)": "82180568",
        "setMyUint(uint256)": "e492fd84"
    },
    "gasEstimates": {
        "creation": {
            "codeDepositCost": "262800",
            "executionCost": "infinite",
            "totalCost": "infinite"
        },
        "external": {
            "decrementUint()": "21042",
            "getBalanceOfAddress()": "1800",
            "incrementUint()": "21037",
            "myAddress()": "1115",
            "myBool()": "1121",
            "myString()": "infinite",
            "myUint()": "999",
            "myUint8()": "1068",
            "setAddress(address)": "21150",
            "setMyBool(bool)": "21141",
            "setMyString(string)": "infinite",
            "setMyUint(uint256)": "20277"
        }
    }
}