{
  "contractName": "MyContract",
  "abi": [
    {
      "anonymous": false,
      "inputs": [
        {
          "indexed": false,
          "internalType": "uint256",
          "name": "data",
          "type": "uint256"
        }
      ],
      "name": "DataChanged",
      "type": "event"
    },
    {
      "constant": false,
      "inputs": [
        {
          "internalType": "uint256",
          "name": "_data",
          "type": "uint256"
        }
      ],
      "name": "setData",
      "outputs": [],
      "payable": false,
      "stateMutability": "nonpayable",
      "type": "function"
    }
  ],
  "bytecode": "0x6080604052348015600f57600080fd5b5060d98061001e6000396000f3fe6080604052348015600f57600080fd5b506004361060285760003560e01c80635b4b73a914602d575b600080fd5b605660048036036020811015604157600080fd5b81019080803590602001909291905050506058565b005b6000600182019050806000819055507f30abf1e3f71dc652b1df75682ae16af5c006ad42cd23d00001e8e106d8af4e1d6000546040518082815260200191505060405180910390a1505056fea265627a7a72315820a1d16565fef9cde123f549fae996625d019afcc4c40f7b28e985ebffcf34893564736f6c63430005100032",
  "source": "pragma solidity ^0.5.16;\r\n\r\ncontract MyContract{\r\n    // storage vars, events, modifiers, functions\r\n    uint data;\r\n    event DataChanged(uint data);\r\n    //default value is always 0.\r\n    function setData(uint _data) external {\r\n        uint d = _data +1;\r\n        data = d;\r\n        emit DataChanged(data);\r\n    }\r\n}",
  "sourcePath": "/mnt/c/Users/sherm/coding_workspace/solidity/contracts/myContract.sol",
  "compiler": {
    "name": "solc",
    "version": "0.5.16+commit.9c3226ce.Emscripten.clang"
  },
  "schemaVersion": "3.3.4",
  "updatedAt": "2021-02-23T16:32:56.029Z",
  "devdoc": {
    "methods": {}
  },
  "userdoc": {
    "methods": {}
  }
}