{
  "contractName": "sendMoney",
  "abi": [
    {
      "constant": true,
      "inputs": [],
      "name": "balanceReceived",
      "outputs": [
        {
          "internalType": "uint256",
          "name": "",
          "type": "uint256"
        }
      ],
      "payable": false,
      "stateMutability": "view",
      "type": "function"
    },
    {
      "constant": false,
      "inputs": [],
      "name": "receiveMoney",
      "outputs": [],
      "payable": true,
      "stateMutability": "payable",
      "type": "function"
    },
    {
      "constant": true,
      "inputs": [],
      "name": "getBalance",
      "outputs": [
        {
          "internalType": "uint256",
          "name": "",
          "type": "uint256"
        }
      ],
      "payable": false,
      "stateMutability": "view",
      "type": "function"
    },
    {
      "constant": false,
      "inputs": [],
      "name": "withdrawMoney",
      "outputs": [],
      "payable": false,
      "stateMutability": "nonpayable",
      "type": "function"
    },
    {
      "constant": false,
      "inputs": [
        {
          "internalType": "address payable",
          "name": "_to",
          "type": "address"
        }
      ],
      "name": "withdrawMoneyTo",
      "outputs": [],
      "payable": false,
      "stateMutability": "nonpayable",
      "type": "function"
    }
  ],
  "bytecode": "0x608060405234801561001057600080fd5b50610304806100206000396000f3fe60806040526004361061004a5760003560e01c80630ff8d8a51461004f57806312065fe0146100a057806352a90c42146100cb5780636d26ec18146100f6578063ac44600214610100575b600080fd5b34801561005b57600080fd5b5061009e6004803603602081101561007257600080fd5b81019080803573ffffffffffffffffffffffffffffffffffffffff169060200190929190505050610117565b005b3480156100ac57600080fd5b506100b56101e1565b6040518082815260200191505060405180910390f35b3480156100d757600080fd5b506100e06101e9565b6040518082815260200191505060405180910390f35b6100fe6101ef565b005b34801561010c57600080fd5b50610115610200565b005b8073ffffffffffffffffffffffffffffffffffffffff166108fc3073ffffffffffffffffffffffffffffffffffffffff166312065fe06040518163ffffffff1660e01b815260040160206040518083038186803b15801561017757600080fd5b505afa15801561018b573d6000803e3d6000fd5b505050506040513d60208110156101a157600080fd5b81019080805190602001909291905050509081150290604051600060405180830381858888f193505050501580156101dd573d6000803e3d6000fd5b5050565b600047905090565b60005481565b346000808282540192505081905550565b60003390508073ffffffffffffffffffffffffffffffffffffffff166108fc3073ffffffffffffffffffffffffffffffffffffffff166312065fe06040518163ffffffff1660e01b815260040160206040518083038186803b15801561026557600080fd5b505afa158015610279573d6000803e3d6000fd5b505050506040513d602081101561028f57600080fd5b81019080805190602001909291905050509081150290604051600060405180830381858888f193505050501580156102cb573d6000803e3d6000fd5b505056fea265627a7a7231582061f16f3dcf84eaa91a583f0e1270699816fd5943f54ba96733ed69a546c2fada64736f6c63430005100032",
  "source": "pragma solidity ^0.5.16;\n\ncontract sendMoney {\n    uint public balanceReceived;\n\n    function receiveMoney() public payable{\n        balanceReceived += msg.value;\n    }\n\n    function getBalance() public view returns(uint) {\n        return address(this).balance;\n    }\n    \n    function withdrawMoney() public{\n        address payable to = msg.sender;\n\n        to.transfer(this.getBalance());\n    }\n\n    function withdrawMoneyTo(address payable _to) public{\n        _to.transfer(this.getBalance());\n    }\n\n}\n\n// Available Accounts\n// ==================\n// (0) 0x655fDEd4A96e5036593C3e966aD9C93D299421E9 (100 ETH)\n// (1) 0x840fb44c02677FF87b11f219b8b00adcA0D9551D (100 ETH)\n// (2) 0x74346f1637E08B16cc8C81E3f5d313d930E7B0BF (100 ETH)\n// (3) 0x2b645a9A95E62b5d4373A953234707f69318F19D (100 ETH)\n// (4) 0xa8C592DDe1A416E7cd82B99e4f966092960Cf0C0 (100 ETH)\n// (5) 0x556B981eA1df92AD40Ed1ad642473fdd06297733 (100 ETH)\n// (6) 0xd1D95A6dE94993487095925635c3b787C9b6ACFb (100 ETH)\n// (7) 0xe136e7cb783627acA45e374B9011D8835aCfe1CC (100 ETH)\n// (8) 0xE96fa6cD54Aa9C910C1fA5E584bB84Cff8104177 (100 ETH)\n// (9) 0x9B0939F12bFBe967f8A5d28801f6C9d6F09E0644 (100 ETH)\n\n// Private Keys\n// ==================\n// (0) 0x3d007d1a164e73cfd5d67229189af2572664886bbc8f2c89f0dd8c468fcd8a8f\n// (1) 0x76fa5d3b918298359c71f85f47607c856f7129b2cd338c62b9e124aa8372db0a\n// (2) 0x597de93e6a21ef4b1fff26147e8c204bf6433b5f1301d4166beb7e61cd9f9f75\n// (3) 0x6e5a2e46738f91dee89fefc0e675e1acb36c51a106241096ee004b798fc48a73\n// (4) 0x41dad7bc65a4c7ef565e023773933a4aa5f9649c7394575aabbf21177e494cf8\n// (5) 0x8848f52f9c4f2c4f87d9d61d73bfdfc9af254fd77102473d7211f29e8ad250f2\n// (6) 0x007fb2c3fb466bd3c37a51b17293e7a751f3639ba198c3f141aea8285f616e95\n// (7) 0xc2c5e2cb5e186cda3d9e5b688d5d3a2c4ba1ee4419212aa20a0cee672a0ebe4c\n// (8) 0x9040de37e4810904cda512daf5867f535fb0a0fa1a42291b1175a6bb5348b643\n// (9) 0xd036a04aad728c63f2feb2c9a5bf48c4dd834b7b2eebe6bc6cc7a17e93538928",
  "sourcePath": "/mnt/c/Users/sherm/coding_workspace/solidity/contracts/sendMoney.sol",
  "compiler": {
    "name": "solc",
    "version": "0.5.16+commit.9c3226ce.Emscripten.clang"
  },
  "schemaVersion": "3.3.4",
  "updatedAt": "2021-02-23T16:32:56.031Z",
  "devdoc": {
    "methods": {}
  },
  "userdoc": {
    "methods": {}
  }
}