{
  "contractName": "SimpleMapping",
  "abi": [
    {
      "constant": true,
      "inputs": [
        {
          "internalType": "address",
          "name": "",
          "type": "address"
        }
      ],
      "name": "balanceReceived",
      "outputs": [
        {
          "internalType": "uint256",
          "name": "totalBalance",
          "type": "uint256"
        },
        {
          "internalType": "uint256",
          "name": "numPayments",
          "type": "uint256"
        }
      ],
      "payable": false,
      "stateMutability": "view",
      "type": "function"
    },
    {
      "constant": true,
      "inputs": [
        {
          "internalType": "address",
          "name": "",
          "type": "address"
        }
      ],
      "name": "myAddressMapping",
      "outputs": [
        {
          "internalType": "bool",
          "name": "",
          "type": "bool"
        }
      ],
      "payable": false,
      "stateMutability": "view",
      "type": "function"
    },
    {
      "constant": true,
      "inputs": [],
      "name": "getBalance",
      "outputs": [
        {
          "internalType": "uint256",
          "name": "",
          "type": "uint256"
        }
      ],
      "payable": false,
      "stateMutability": "view",
      "type": "function"
    },
    {
      "constant": false,
      "inputs": [],
      "name": "sendMoney",
      "outputs": [],
      "payable": true,
      "stateMutability": "payable",
      "type": "function"
    },
    {
      "constant": false,
      "inputs": [
        {
          "internalType": "address payable",
          "name": "_to",
          "type": "address"
        },
        {
          "internalType": "uint256",
          "name": "_amount",
          "type": "uint256"
        }
      ],
      "name": "withdrawSome",
      "outputs": [],
      "payable": false,
      "stateMutability": "nonpayable",
      "type": "function"
    },
    {
      "constant": false,
      "inputs": [
        {
          "internalType": "address payable",
          "name": "_to",
          "type": "address"
        }
      ],
      "name": "withdrawAllMoney",
      "outputs": [],
      "payable": false,
      "stateMutability": "nonpayable",
      "type": "function"
    }
  ],
  "bytecode": "0x608060405234801561001057600080fd5b50610649806100206000396000f3fe6080604052600436106100555760003560e01c80630adec93c1461005a57806312065fe0146100ab578063340c8cc0146100d6578063b92ba3b814610131578063cbedbf5a1461019a578063d18a42e1146101a4575b600080fd5b34801561006657600080fd5b506100a96004803603602081101561007d57600080fd5b81019080803573ffffffffffffffffffffffffffffffffffffffff169060200190929190505050610210565b005b3480156100b757600080fd5b506100c06102ea565b6040518082815260200191505060405180910390f35b3480156100e257600080fd5b5061012f600480360360408110156100f957600080fd5b81019080803573ffffffffffffffffffffffffffffffffffffffff169060200190929190803590602001909291905050506102f2565b005b34801561013d57600080fd5b506101806004803603602081101561015457600080fd5b81019080803573ffffffffffffffffffffffffffffffffffffffff169060200190929190505050610445565b604051808215151515815260200191505060405180910390f35b6101a2610465565b005b3480156101b057600080fd5b506101f3600480360360208110156101c757600080fd5b81019080803573ffffffffffffffffffffffffffffffffffffffff1690602001909291905050506105d6565b604051808381526020018281526020019250505060405180910390f35b6000600160003373ffffffffffffffffffffffffffffffffffffffff1673ffffffffffffffffffffffffffffffffffffffff1681526020019081526020016000206000015490506000600160003373ffffffffffffffffffffffffffffffffffffffff1673ffffffffffffffffffffffffffffffffffffffff168152602001908152602001600020600001819055508173ffffffffffffffffffffffffffffffffffffffff166108fc829081150290604051600060405180830381858888f193505050501580156102e5573d6000803e3d6000fd5b505050565b600047905090565b80600160003373ffffffffffffffffffffffffffffffffffffffff1673ffffffffffffffffffffffffffffffffffffffff1681526020019081526020016000206000015410156103aa576040517f08c379a00000000000000000000000000000000000000000000000000000000081526004018080602001828103825260188152602001807f4e6f7420656e6f7567682066756e647320746f2073656e64000000000000000081525060200191505060405180910390fd5b80600160003373ffffffffffffffffffffffffffffffffffffffff1673ffffffffffffffffffffffffffffffffffffffff168152602001908152602001600020600001600082825403925050819055508173ffffffffffffffffffffffffffffffffffffffff166108fc829081150290604051600060405180830381858888f19350505050158015610440573d6000803e3d6000fd5b505050565b60006020528060005260406000206000915054906101000a900460ff1681565b34600160003373ffffffffffffffffffffffffffffffffffffffff1673ffffffffffffffffffffffffffffffffffffffff168152602001908152602001600020600001600082825401925050819055506104bd6105fa565b604051806040016040528034815260200142815250905080600160003373ffffffffffffffffffffffffffffffffffffffff1673ffffffffffffffffffffffffffffffffffffffff1681526020019081526020016000206002016000600160003373ffffffffffffffffffffffffffffffffffffffff1673ffffffffffffffffffffffffffffffffffffffff1681526020019081526020016000206001015481526020019081526020016000206000820151816000015560208201518160010155905050600160003373ffffffffffffffffffffffffffffffffffffffff1673ffffffffffffffffffffffffffffffffffffffff1681526020019081526020016000206001016000815480929190600101919050555050565b60016020528060005260406000206000915090508060000154908060010154905082565b60405180604001604052806000815260200160008152509056fea265627a7a72315820b001bb491cfc17f80bd40c6d97ecaaa4d3032fff570fc248391f49ef8b1928c964736f6c63430005100032",
  "source": "pragma solidity ^0.5.16;\r\n\r\ncontract SimpleMapping{\r\n    // map key to value\r\n    //map unsigned int into a bool\r\n    struct Payment{\r\n        uint amount;\r\n        uint timestamps;\r\n    }\r\n\r\n    struct Balance{\r\n        uint totalBalance;\r\n        uint numPayments;\r\n        mapping(uint =>Payment) payments;\r\n    }\r\n\r\n    mapping(address =>bool) public myAddressMapping;\r\n    mapping(address => Balance) public balanceReceived;\r\n    //set values w func\r\n\r\n    function getBalance() public view returns(uint){\r\n        return address(this).balance;\r\n    }\r\n\r\n    function sendMoney() public payable {\r\n        balanceReceived[msg.sender].totalBalance +=msg.value;\r\n\r\n        Payment memory payment = Payment(msg.value,now);\r\n\r\n        balanceReceived[msg.sender].payments[balanceReceived[msg.sender].numPayments] = payment;\r\n        balanceReceived[msg.sender].numPayments++;\r\n    }\r\n    function withdrawSome(address payable _to, uint _amount) public{\r\n        require(balanceReceived[msg.sender].totalBalance>=_amount,\"Not enough funds to send\");\r\n        balanceReceived[msg.sender].totalBalance -= _amount;\r\n        _to.transfer(_amount);\r\n        \r\n    }\r\n    function withdrawAllMoney(address payable _to) public{\r\n        // Store the value of balance to var send, set to 0 in key-value and transfer\r\n        uint balanceToSend = balanceReceived[msg.sender].totalBalance;\r\n        balanceReceived[msg.sender].totalBalance = 0;\r\n        _to.transfer(balanceToSend);\r\n    }\r\n\r\n}",
  "sourcePath": "/mnt/c/Users/sherm/coding_workspace/solidity/contracts/SimpleMapping.sol",
  "compiler": {
    "name": "solc",
    "version": "0.5.16+commit.9c3226ce.Emscripten.clang"
  },
  "schemaVersion": "3.3.4",
  "updatedAt": "2021-03-03T12:26:58.843Z",
  "devdoc": {
    "methods": {}
  },
  "userdoc": {
    "methods": {}
  }
}