{
  "contractName": "WorkingVariables",
  "abi": [
    {
      "constant": true,
      "inputs": [],
      "name": "myAddress",
      "outputs": [
        {
          "internalType": "address",
          "name": "",
          "type": "address"
        }
      ],
      "payable": false,
      "stateMutability": "view",
      "type": "function"
    },
    {
      "constant": true,
      "inputs": [],
      "name": "myBool",
      "outputs": [
        {
          "internalType": "bool",
          "name": "",
          "type": "bool"
        }
      ],
      "payable": false,
      "stateMutability": "view",
      "type": "function"
    },
    {
      "constant": true,
      "inputs": [],
      "name": "myString",
      "outputs": [
        {
          "internalType": "string",
          "name": "",
          "type": "string"
        }
      ],
      "payable": false,
      "stateMutability": "view",
      "type": "function"
    },
    {
      "constant": true,
      "inputs": [],
      "name": "myUint",
      "outputs": [
        {
          "internalType": "uint256",
          "name": "",
          "type": "uint256"
        }
      ],
      "payable": false,
      "stateMutability": "view",
      "type": "function"
    },
    {
      "constant": true,
      "inputs": [],
      "name": "myUint8",
      "outputs": [
        {
          "internalType": "uint8",
          "name": "",
          "type": "uint8"
        }
      ],
      "payable": false,
      "stateMutability": "view",
      "type": "function"
    },
    {
      "constant": false,
      "inputs": [
        {
          "internalType": "uint256",
          "name": "_myUint",
          "type": "uint256"
        }
      ],
      "name": "setMyUint",
      "outputs": [],
      "payable": false,
      "stateMutability": "nonpayable",
      "type": "function"
    },
    {
      "constant": false,
      "inputs": [
        {
          "internalType": "bool",
          "name": "_myBool",
          "type": "bool"
        }
      ],
      "name": "setMyBool",
      "outputs": [],
      "payable": false,
      "stateMutability": "nonpayable",
      "type": "function"
    },
    {
      "constant": false,
      "inputs": [],
      "name": "incrementUint",
      "outputs": [],
      "payable": false,
      "stateMutability": "nonpayable",
      "type": "function"
    },
    {
      "constant": false,
      "inputs": [],
      "name": "decrementUint",
      "outputs": [],
      "payable": false,
      "stateMutability": "nonpayable",
      "type": "function"
    },
    {
      "constant": false,
      "inputs": [
        {
          "internalType": "address",
          "name": "_myAddress",
          "type": "address"
        }
      ],
      "name": "setAddress",
      "outputs": [],
      "payable": false,
      "stateMutability": "nonpayable",
      "type": "function"
    },
    {
      "constant": true,
      "inputs": [],
      "name": "getBalanceOfAddress",
      "outputs": [
        {
          "internalType": "uint256",
          "name": "",
          "type": "uint256"
        }
      ],
      "payable": false,
      "stateMutability": "view",
      "type": "function"
    },
    {
      "constant": false,
      "inputs": [
        {
          "internalType": "string",
          "name": "_myString",
          "type": "string"
        }
      ],
      "name": "setMyString",
      "outputs": [],
      "payable": false,
      "stateMutability": "nonpayable",
      "type": "function"
    }
  ],
  "bytecode": "0x60806040526040518060400160405280600b81526020017f68656c6c6f20776f726c640000000000000000000000000000000000000000008152506002908051906020019061004f929190610062565b5034801561005c57600080fd5b50610107565b828054600181600116156101000203166002900490600052602060002090601f016020900481019282601f106100a357805160ff19168380011785556100d1565b828001600101855582156100d1579182015b828111156100d05782518255916020019190600101906100b5565b5b5090506100de91906100e2565b5090565b61010491905b808211156101005760008160009055506001016100e8565b5090565b90565b61067c806101166000396000f3fe608060405234801561001057600080fd5b50600436106100b45760003560e01c8063821805681161007157806382180568146101ee578063da50eaee146102a9578063e2a4b2af146102b3578063e30081a0146102d7578063e492fd841461031b578063eb1b30d914610349576100b4565b806306540f7e146100b957806314bf43bd146100d757806315502612146100e157806326b85ee1146100ff578063492bfa18146101495780636deecdbe146101cc575b600080fd5b6100c1610379565b6040518082815260200191505060405180910390f35b6100df61037f565b005b6100e96103b2565b6040518082815260200191505060405180910390f35b610107610400565b604051808273ffffffffffffffffffffffffffffffffffffffff1673ffffffffffffffffffffffffffffffffffffffff16815260200191505060405180910390f35b610151610426565b6040518080602001828103825283818151815260200191508051906020019080838360005b83811015610191578082015181840152602081019050610176565b50505050905090810190601f1680156101be5780820380516001836020036101000a031916815260200191505b509250505060405180910390f35b6101d46104c4565b604051808215151515815260200191505060405180910390f35b6102a76004803603602081101561020457600080fd5b810190808035906020019064010000000081111561022157600080fd5b82018360208201111561023357600080fd5b8035906020019184600183028401116401000000008311171561025557600080fd5b91908080601f016020809104026020016040519081016040528093929190818152602001838380828437600081840152601f19601f8201169050808301925050505050505091929192905050506104d7565b005b6102b16104f1565b005b6102bb610525565b604051808260ff1660ff16815260200191505060405180910390f35b610319600480360360208110156102ed57600080fd5b81019080803573ffffffffffffffffffffffffffffffffffffffff169060200190929190505050610537565b005b6103476004803603602081101561033157600080fd5b810190808035906020019092919050505061057b565b005b6103776004803603602081101561035f57600080fd5b81019080803515159060200190929190505050610585565b005b60005481565b60018081819054906101000a900460ff168092919060010191906101000a81548160ff021916908360ff16021790555050565b60006012600a600160029054906101000a900473ffffffffffffffffffffffffffffffffffffffff1673ffffffffffffffffffffffffffffffffffffffff1631816103f957fe5b0418905090565b600160029054906101000a900473ffffffffffffffffffffffffffffffffffffffff1681565b60028054600181600116156101000203166002900480601f0160208091040260200160405190810160405280929190818152602001828054600181600116156101000203166002900480156104bc5780601f10610491576101008083540402835291602001916104bc565b820191906000526020600020905b81548152906001019060200180831161049f57829003601f168201915b505050505081565b600160009054906101000a900460ff1681565b80600290805190602001906104ed9291906105a2565b5050565b60018081819054906101000a900460ff16809291906001900391906101000a81548160ff021916908360ff16021790555050565b6001809054906101000a900460ff1681565b80600160026101000a81548173ffffffffffffffffffffffffffffffffffffffff021916908373ffffffffffffffffffffffffffffffffffffffff16021790555050565b8060008190555050565b80600160006101000a81548160ff02191690831515021790555050565b828054600181600116156101000203166002900490600052602060002090601f016020900481019282601f106105e357805160ff1916838001178555610611565b82800160010185558215610611579182015b828111156106105782518255916020019190600101906105f5565b5b50905061061e9190610622565b5090565b61064491905b80821115610640576000816000905550600101610628565b5090565b9056fea265627a7a72315820d4c86a484ec7140ce7f8aa5f6a068d8c690595e1ce708894009a6d47813f201364736f6c63430005100032",
  "source": "pragma solidity ^0.5.16;\r\n\r\ncontract WorkingVariables{\r\n    uint256 public myUint;\r\n    \r\n    function setMyUint (uint _myUint) public {\r\n        myUint = _myUint;\r\n    }\r\n    \r\n    bool public myBool;\r\n    \r\n    function setMyBool (bool _myBool) public{\r\n        myBool = _myBool;\r\n    }\r\n    \r\n    \r\n    //variables wrap around. 0 - 1 = 256\r\n    uint8 public myUint8;\r\n    \r\n    function incrementUint() public{\r\n        myUint8++;\r\n    }\r\n    function decrementUint() public{\r\n        myUint8--;\r\n    }\r\n    \r\n    address public myAddress;\r\n    \r\n    function setAddress(address _myAddress) public{\r\n        myAddress = _myAddress;\r\n    }\r\n    \r\n    function getBalanceOfAddress () public view returns(uint){\r\n        return myAddress.balance/10^18;\r\n    }\r\n    //strings are stored as byte arrays. can be costly, so can store it outside through events etc. \r\n    \r\n    string public myString = 'hello world';\r\n    \r\n    function setMyString (string memory _myString) public{\r\n        myString = _myString;\r\n    }\r\n}",
  "sourcePath": "/mnt/c/Users/sherm/coding_workspace/solidity/contracts/solidityVars.sol",
  "compiler": {
    "name": "solc",
    "version": "0.5.16+commit.9c3226ce.Emscripten.clang"
  },
  "schemaVersion": "3.3.4",
  "updatedAt": "2021-02-23T16:32:56.032Z",
  "devdoc": {
    "methods": {}
  },
  "userdoc": {
    "methods": {}
  }
}